{
  "contractName": "Openbush",
  "abi": [
    {
      "inputs": [],
      "stateMutability": "nonpayable",
      "type": "constructor"
    },
    {
      "anonymous": false,
      "inputs": [
        {
          "indexed": true,
          "internalType": "address",
          "name": "owner",
          "type": "address"
        },
        {
          "indexed": true,
          "internalType": "address",
          "name": "approved",
          "type": "address"
        },
        {
          "indexed": true,
          "internalType": "uint256",
          "name": "tokenId",
          "type": "uint256"
        }
      ],
      "name": "Approval",
      "type": "event"
    },
    {
      "anonymous": false,
      "inputs": [
        {
          "indexed": true,
          "internalType": "address",
          "name": "owner",
          "type": "address"
        },
        {
          "indexed": true,
          "internalType": "address",
          "name": "operator",
          "type": "address"
        },
        {
          "indexed": false,
          "internalType": "bool",
          "name": "approved",
          "type": "bool"
        }
      ],
      "name": "ApprovalForAll",
      "type": "event"
    },
    {
      "anonymous": false,
      "inputs": [
        {
          "indexed": true,
          "internalType": "address",
          "name": "from",
          "type": "address"
        },
        {
          "indexed": true,
          "internalType": "address",
          "name": "to",
          "type": "address"
        },
        {
          "indexed": true,
          "internalType": "uint256",
          "name": "tokenId",
          "type": "uint256"
        }
      ],
      "name": "Transfer",
      "type": "event"
    },
    {
      "inputs": [
        {
          "internalType": "uint256",
          "name": "",
          "type": "uint256"
        }
      ],
      "name": "NFTs",
      "outputs": [
        {
          "internalType": "uint256",
          "name": "id",
          "type": "uint256"
        },
        {
          "internalType": "string",
          "name": "uri",
          "type": "string"
        },
        {
          "internalType": "string",
          "name": "name",
          "type": "string"
        },
        {
          "internalType": "string",
          "name": "description",
          "type": "string"
        },
        {
          "internalType": "uint256",
          "name": "startprice",
          "type": "uint256"
        },
        {
          "internalType": "uint256",
          "name": "currentprice",
          "type": "uint256"
        },
        {
          "internalType": "address",
          "name": "currentowner",
          "type": "address"
        },
        {
          "internalType": "bool",
          "name": "onsale",
          "type": "bool"
        },
        {
          "internalType": "bool",
          "name": "setaside",
          "type": "bool"
        },
        {
          "internalType": "uint256",
          "name": "endtime",
          "type": "uint256"
        },
        {
          "internalType": "uint256",
          "name": "ownerNum",
          "type": "uint256"
        }
      ],
      "stateMutability": "view",
      "type": "function",
      "constant": true
    },
    {
      "inputs": [
        {
          "internalType": "address",
          "name": "to",
          "type": "address"
        },
        {
          "internalType": "uint256",
          "name": "tokenId",
          "type": "uint256"
        }
      ],
      "name": "approve",
      "outputs": [],
      "stateMutability": "nonpayable",
      "type": "function"
    },
    {
      "inputs": [
        {
          "internalType": "address",
          "name": "owner",
          "type": "address"
        }
      ],
      "name": "balanceOf",
      "outputs": [
        {
          "internalType": "uint256",
          "name": "",
          "type": "uint256"
        }
      ],
      "stateMutability": "view",
      "type": "function",
      "constant": true
    },
    {
      "inputs": [
        {
          "internalType": "uint256",
          "name": "",
          "type": "uint256"
        },
        {
          "internalType": "uint256",
          "name": "",
          "type": "uint256"
        }
      ],
      "name": "bidders",
      "outputs": [
        {
          "internalType": "address",
          "name": "",
          "type": "address"
        }
      ],
      "stateMutability": "view",
      "type": "function",
      "constant": true
    },
    {
      "inputs": [
        {
          "internalType": "uint256",
          "name": "",
          "type": "uint256"
        },
        {
          "internalType": "uint256",
          "name": "",
          "type": "uint256"
        }
      ],
      "name": "bidprices",
      "outputs": [
        {
          "internalType": "uint256",
          "name": "",
          "type": "uint256"
        }
      ],
      "stateMutability": "view",
      "type": "function",
      "constant": true
    },
    {
      "inputs": [
        {
          "internalType": "uint256",
          "name": "tokenId",
          "type": "uint256"
        }
      ],
      "name": "getApproved",
      "outputs": [
        {
          "internalType": "address",
          "name": "",
          "type": "address"
        }
      ],
      "stateMutability": "view",
      "type": "function",
      "constant": true
    },
    {
      "inputs": [
        {
          "internalType": "address",
          "name": "owner",
          "type": "address"
        },
        {
          "internalType": "address",
          "name": "operator",
          "type": "address"
        }
      ],
      "name": "isApprovedForAll",
      "outputs": [
        {
          "internalType": "bool",
          "name": "",
          "type": "bool"
        }
      ],
      "stateMutability": "view",
      "type": "function",
      "constant": true
    },
    {
      "inputs": [],
      "name": "name",
      "outputs": [
        {
          "internalType": "string",
          "name": "",
          "type": "string"
        }
      ],
      "stateMutability": "view",
      "type": "function",
      "constant": true
    },
    {
      "inputs": [
        {
          "internalType": "uint256",
          "name": "tokenId",
          "type": "uint256"
        }
      ],
      "name": "ownerOf",
      "outputs": [
        {
          "internalType": "address",
          "name": "",
          "type": "address"
        }
      ],
      "stateMutability": "view",
      "type": "function",
      "constant": true
    },
    {
      "inputs": [
        {
          "internalType": "uint256",
          "name": "",
          "type": "uint256"
        },
        {
          "internalType": "uint256",
          "name": "",
          "type": "uint256"
        }
      ],
      "name": "owners",
      "outputs": [
        {
          "internalType": "address",
          "name": "",
          "type": "address"
        }
      ],
      "stateMutability": "view",
      "type": "function",
      "constant": true
    },
    {
      "inputs": [
        {
          "internalType": "address",
          "name": "from",
          "type": "address"
        },
        {
          "internalType": "address",
          "name": "to",
          "type": "address"
        },
        {
          "internalType": "uint256",
          "name": "tokenId",
          "type": "uint256"
        }
      ],
      "name": "safeTransferFrom",
      "outputs": [],
      "stateMutability": "nonpayable",
      "type": "function"
    },
    {
      "inputs": [
        {
          "internalType": "address",
          "name": "from",
          "type": "address"
        },
        {
          "internalType": "address",
          "name": "to",
          "type": "address"
        },
        {
          "internalType": "uint256",
          "name": "tokenId",
          "type": "uint256"
        },
        {
          "internalType": "bytes",
          "name": "_data",
          "type": "bytes"
        }
      ],
      "name": "safeTransferFrom",
      "outputs": [],
      "stateMutability": "nonpayable",
      "type": "function"
    },
    {
      "inputs": [
        {
          "internalType": "address",
          "name": "operator",
          "type": "address"
        },
        {
          "internalType": "bool",
          "name": "approved",
          "type": "bool"
        }
      ],
      "name": "setApprovalForAll",
      "outputs": [],
      "stateMutability": "nonpayable",
      "type": "function"
    },
    {
      "inputs": [
        {
          "internalType": "bytes4",
          "name": "interfaceId",
          "type": "bytes4"
        }
      ],
      "name": "supportsInterface",
      "outputs": [
        {
          "internalType": "bool",
          "name": "",
          "type": "bool"
        }
      ],
      "stateMutability": "view",
      "type": "function",
      "constant": true
    },
    {
      "inputs": [],
      "name": "symbol",
      "outputs": [
        {
          "internalType": "string",
          "name": "",
          "type": "string"
        }
      ],
      "stateMutability": "view",
      "type": "function",
      "constant": true
    },
    {
      "inputs": [
        {
          "internalType": "uint256",
          "name": "tokenId",
          "type": "uint256"
        }
      ],
      "name": "tokenURI",
      "outputs": [
        {
          "internalType": "string",
          "name": "",
          "type": "string"
        }
      ],
      "stateMutability": "view",
      "type": "function",
      "constant": true
    },
    {
      "inputs": [
        {
          "internalType": "address",
          "name": "from",
          "type": "address"
        },
        {
          "internalType": "address",
          "name": "to",
          "type": "address"
        },
        {
          "internalType": "uint256",
          "name": "tokenId",
          "type": "uint256"
        }
      ],
      "name": "transferFrom",
      "outputs": [],
      "stateMutability": "nonpayable",
      "type": "function"
    },
    {
      "inputs": [],
      "name": "deposit",
      "outputs": [],
      "stateMutability": "payable",
      "type": "function",
      "payable": true
    },
    {
      "inputs": [
        {
          "internalType": "string",
          "name": "_uri",
          "type": "string"
        },
        {
          "internalType": "string",
          "name": "_name",
          "type": "string"
        },
        {
          "internalType": "string",
          "name": "_description",
          "type": "string"
        },
        {
          "internalType": "uint256",
          "name": "_price",
          "type": "uint256"
        }
      ],
      "name": "createNFT",
      "outputs": [],
      "stateMutability": "payable",
      "type": "function",
      "payable": true
    },
    {
      "inputs": [
        {
          "internalType": "uint256",
          "name": "_id",
          "type": "uint256"
        },
        {
          "internalType": "uint256",
          "name": "_startprice",
          "type": "uint256"
        },
        {
          "internalType": "uint256",
          "name": "_time",
          "type": "uint256"
        }
      ],
      "name": "sell",
      "outputs": [],
      "stateMutability": "payable",
      "type": "function",
      "payable": true
    },
    {
      "inputs": [
        {
          "internalType": "uint256",
          "name": "_id",
          "type": "uint256"
        },
        {
          "internalType": "uint256",
          "name": "_price",
          "type": "uint256"
        }
      ],
      "name": "bid",
      "outputs": [],
      "stateMutability": "payable",
      "type": "function",
      "payable": true
    },
    {
      "inputs": [],
      "name": "refreshAuction",
      "outputs": [],
      "stateMutability": "nonpayable",
      "type": "function"
    },
    {
      "inputs": [
        {
          "internalType": "uint256",
          "name": "_id",
          "type": "uint256"
        }
      ],
      "name": "sellerApprove",
      "outputs": [],
      "stateMutability": "payable",
      "type": "function",
      "payable": true
    },
    {
      "inputs": [
        {
          "internalType": "uint256",
          "name": "_id",
          "type": "uint256"
        }
      ],
      "name": "claim",
      "outputs": [],
      "stateMutability": "payable",
      "type": "function",
      "payable": true
    },
    {
      "inputs": [],
      "name": "getNFT",
      "outputs": [
        {
          "internalType": "uint256[10]",
          "name": "ret",
          "type": "uint256[10]"
        }
      ],
      "stateMutability": "view",
      "type": "function",
      "constant": true
    },
    {
      "inputs": [],
      "name": "getAuction",
      "outputs": [
        {
          "internalType": "uint256[10]",
          "name": "ret",
          "type": "uint256[10]"
        }
      ],
      "stateMutability": "view",
      "type": "function",
      "constant": true
    },
    {
      "inputs": [],
      "name": "getAllAuction",
      "outputs": [
        {
          "internalType": "uint256[10]",
          "name": "ret",
          "type": "uint256[10]"
        }
      ],
      "stateMutability": "view",
      "type": "function",
      "constant": true
    },
    {
      "inputs": [],
      "name": "getBid",
      "outputs": [
        {
          "internalType": "uint256[10]",
          "name": "ret",
          "type": "uint256[10]"
        }
      ],
      "stateMutability": "view",
      "type": "function",
      "constant": true
    }
  ],
  "bytecode": "0x60806040523480156200001157600080fd5b506040518060400160405280600881526020017f4f70656e627573680000000000000000000000000000000000000000000000008152506040518060400160405280600381526020017f4f42530000000000000000000000000000000000000000000000000000000000815250816000908051906020019062000096929190620000b8565b508060019080519060200190620000af929190620000b8565b505050620001cd565b828054620000c69062000197565b90600052602060002090601f016020900481019282620000ea576000855562000136565b82601f106200010557805160ff191683800117855562000136565b8280016001018555821562000136579182015b828111156200013557825182559160200191906001019062000118565b5b50905062000145919062000149565b5090565b5b80821115620001645760008160009055506001016200014a565b5090565b7f4e487b7100000000000000000000000000000000000000000000000000000000600052602260045260246000fd5b60006002820490506001821680620001b057607f821691505b60208210811415620001c757620001c662000168565b5b50919050565b61440280620001dd6000396000f3fe6080604052600436106101b75760003560e01c806370a08231116100ec578063c876f5ad1161008a578063d0e30db011610064578063d0e30db014610604578063d1c112051461060e578063d3c9727c1461064b578063e985e9c514610667576101b7565b8063c876f5ad1461058f578063c87b56dd146105ab578063ca1e217f146105e8576101b7565b806395d89b41116100c657806395d89b41146104cb578063a22cb465146104f6578063a3c0b95b1461051f578063b88d4fde14610566576101b7565b806370a08231146104385780637327df251461047557806388a6360e146104a0576101b7565b806333764f531161015957806342842e0e1161013357806342842e0e1461039f5780634abe378b146103c8578063598647f8146103df5780636352211e146103fb576101b7565b806333764f5314610309578063379607f5146103465780633ed7bb8a14610362576101b7565b8063095ea7b311610195578063095ea7b314610261578063099a019d1461028a57806316056daa146102b557806323b872dd146102e0576101b7565b806301ffc9a7146101bc57806306fdde03146101f9578063081812fc14610224575b600080fd5b3480156101c857600080fd5b506101e360048036038101906101de9190612fa3565b6106a4565b6040516101f09190612feb565b60405180910390f35b34801561020557600080fd5b5061020e610786565b60405161021b919061309f565b60405180910390f35b34801561023057600080fd5b5061024b600480360381019061024691906130f7565b610818565b6040516102589190613165565b60405180910390f35b34801561026d57600080fd5b50610288600480360381019061028391906131ac565b61089d565b005b34801561029657600080fd5b5061029f6109b5565b6040516102ac9190613297565b60405180910390f35b3480156102c157600080fd5b506102ca610ba5565b6040516102d79190613297565b60405180910390f35b3480156102ec57600080fd5b50610307600480360381019061030291906132b3565b610c97565b005b34801561031557600080fd5b50610330600480360381019061032b9190613306565b610cf7565b60405161033d9190613165565b60405180910390f35b610360600480360381019061035b91906130f7565b610d45565b005b34801561036e57600080fd5b5061038960048036038101906103849190613306565b610fc6565b6040516103969190613355565b60405180910390f35b3480156103ab57600080fd5b506103c660048036038101906103c191906132b3565b610ff7565b005b3480156103d457600080fd5b506103dd611017565b005b6103f960048036038101906103f49190613306565b61112a565b005b34801561040757600080fd5b50610422600480360381019061041d91906130f7565b6112dc565b60405161042f9190613165565b60405180910390f35b34801561044457600080fd5b5061045f600480360381019061045a9190613370565b61138e565b60405161046c9190613355565b60405180910390f35b34801561048157600080fd5b5061048a611446565b6040516104979190613297565b60405180910390f35b3480156104ac57600080fd5b506104b56115b8565b6040516104c29190613297565b60405180910390f35b3480156104d757600080fd5b506104e06116a7565b6040516104ed919061309f565b60405180910390f35b34801561050257600080fd5b5061051d600480360381019061051891906133c9565b611739565b005b34801561052b57600080fd5b50610546600480360381019061054191906130f7565b6118ba565b60405161055d9b9a99989796959493929190613409565b60405180910390f35b34801561057257600080fd5b5061058d600480360381019061058891906135fe565b611af6565b005b6105a960048036038101906105a491906130f7565b611b58565b005b3480156105b757600080fd5b506105d260048036038101906105cd91906130f7565b611d94565b6040516105df919061309f565b60405180910390f35b61060260048036038101906105fd9190613722565b611e3b565b005b61060c612074565b005b34801561061a57600080fd5b5061063560048036038101906106309190613306565b612076565b6040516106429190613165565b60405180910390f35b610665600480360381019061066091906137dd565b6120c4565b005b34801561067357600080fd5b5061068e60048036038101906106899190613830565b612300565b60405161069b9190612feb565b60405180910390f35b60007f80ac58cd000000000000000000000000000000000000000000000000000000007bffffffffffffffffffffffffffffffffffffffffffffffffffffffff1916827bffffffffffffffffffffffffffffffffffffffffffffffffffffffff1916148061076f57507f5b5e139f000000000000000000000000000000000000000000000000000000007bffffffffffffffffffffffffffffffffffffffffffffffffffffffff1916827bffffffffffffffffffffffffffffffffffffffffffffffffffffffff1916145b8061077f575061077e82612394565b5b9050919050565b6060600080546107959061389f565b80601f01602080910402602001604051908101604052809291908181526020018280546107c19061389f565b801561080e5780601f106107e35761010080835404028352916020019161080e565b820191906000526020600020905b8154815290600101906020018083116107f157829003601f168201915b5050505050905090565b6000610823826123fe565b610862576040517f08c379a000000000000000000000000000000000000000000000000000000000815260040161085990613943565b60405180910390fd5b6004600083815260200190815260200160002060009054906101000a900473ffffffffffffffffffffffffffffffffffffffff169050919050565b60006108a8826112dc565b90508073ffffffffffffffffffffffffffffffffffffffff168373ffffffffffffffffffffffffffffffffffffffff161415610919576040517f08c379a0000000000000000000000000000000000000000000000000000000008152600401610910906139d5565b60405180910390fd5b8073ffffffffffffffffffffffffffffffffffffffff1661093861246a565b73ffffffffffffffffffffffffffffffffffffffff16148061096757506109668161096161246a565b612300565b5b6109a6576040517f08c379a000000000000000000000000000000000000000000000000000000000815260040161099d90613a67565b60405180910390fd5b6109b08383612472565b505050565b6109bd612e2f565b6109c5612e2f565b6000600b826000600a81106109dd576109dc613a87565b5b60200201818152505060005b600980549050811015610b9c576001151560098281548110610a0e57610a0d613a87565b5b906000526020600020906009020160060160149054906101000a900460ff1615151480610a7157506001151560098281548110610a4e57610a4d613a87565b5b906000526020600020906009020160060160159054906101000a900460ff161515145b15610b895760005b6008600083815260200190815260200160002080549050811015610b87573373ffffffffffffffffffffffffffffffffffffffff16600860008481526020019081526020016000208281548110610ad357610ad2613a87565b5b9060005260206000200160009054906101000a900473ffffffffffffffffffffffffffffffffffffffff1673ffffffffffffffffffffffffffffffffffffffff161415610b7457818484600a8110610b2e57610b2d613a87565b5b602002018181525050600b84600185610b479190613ae5565b600a8110610b5857610b57613a87565b5b6020020181815250508280610b6c90613b3b565b935050610b87565b8080610b7f90613b3b565b915050610a79565b505b8080610b9490613b3b565b9150506109e9565b50819250505090565b610bad612e2f565b610bb5612e2f565b6000600b826000600a8110610bcd57610bcc613a87565b5b60200201818152505060005b600980549050811015610c8e576001151560098281548110610bfe57610bfd613a87565b5b906000526020600020906009020160060160149054906101000a900460ff1615151415610c7b57808383600a8110610c3957610c38613a87565b5b602002018181525050600b83600184610c529190613ae5565b600a8110610c6357610c62613a87565b5b6020020181815250508180610c7790613b3b565b9250505b8080610c8690613b3b565b915050610bd9565b50819250505090565b610ca8610ca261246a565b8261252b565b610ce7576040517f08c379a0000000000000000000000000000000000000000000000000000000008152600401610cde90613bf6565b60405180910390fd5b610cf2838383612609565b505050565b60066020528160005260406000208181548110610d1357600080fd5b906000526020600020016000915091509054906101000a900473ffffffffffffffffffffffffffffffffffffffff1681565b6001151560098281548110610d5d57610d5c613a87565b5b906000526020600020906009020160060160159054906101000a900460ff16151514610d8857600080fd5b3373ffffffffffffffffffffffffffffffffffffffff1660098281548110610db357610db2613a87565b5b906000526020600020906009020160060160009054906101000a900473ffffffffffffffffffffffffffffffffffffffff1673ffffffffffffffffffffffffffffffffffffffff1614610e0557600080fd5b3460098281548110610e1a57610e19613a87565b5b90600052602060002090600902016005015414610e3657600080fd5b610e49610e42826112dc565b3383610c97565b60066000828152602001908152602001600020339080600181540180825580915050600190039060005260206000200160009091909190916101000a81548173ffffffffffffffffffffffffffffffffffffffff021916908373ffffffffffffffffffffffffffffffffffffffff16021790555060098181548110610ed157610ed0613a87565b5b90600052602060002090600902016008016000815480929190610ef390613b3b565b9190505550600060098281548110610f0e57610f0d613a87565b5b906000526020600020906009020160060160156101000a81548160ff02191690831515021790555060098181548110610f4a57610f49613a87565b5b90600052602060002090600902016005015460098281548110610f7057610f6f613a87565b5b906000526020600020906009020160040181905550600860008281526020019081526020016000206000610fa49190612e52565b600760008281526020019081526020016000206000610fc39190612e73565b50565b60076020528160005260406000208181548110610fe257600080fd5b90600052602060002001600091509150505481565b61101283838360405180602001604052806000815250611af6565b505050565b60005b60098054905081101561112757600115156009828154811061103f5761103e613a87565b5b906000526020600020906009020160060160149054906101000a900460ff1615151480156110925750426009828154811061107d5761107c613a87565b5b90600052602060002090600902016007015411155b15611114576000600982815481106110ad576110ac613a87565b5b906000526020600020906009020160060160146101000a81548160ff0219169083151502179055506001600982815481106110eb576110ea613a87565b5b906000526020600020906009020160060160156101000a81548160ff0219169083151502179055505b808061111f90613b3b565b91505061101a565b50565b6009828154811061113e5761113d613a87565b5b906000526020600020906009020160050154811161115b57600080fd5b3373ffffffffffffffffffffffffffffffffffffffff1661117b836112dc565b73ffffffffffffffffffffffffffffffffffffffff16141561119c57600080fd5b80600983815481106111b1576111b0613a87565b5b90600052602060002090600902016005018190555033600983815481106111db576111da613a87565b5b906000526020600020906009020160060160006101000a81548173ffffffffffffffffffffffffffffffffffffffff021916908373ffffffffffffffffffffffffffffffffffffffff16021790555060086000838152602001908152602001600020339080600181540180825580915050600190039060005260206000200160009091909190916101000a81548173ffffffffffffffffffffffffffffffffffffffff021916908373ffffffffffffffffffffffffffffffffffffffff160217905550600760008381526020019081526020016000208190806001815401808255809150506001900390600052602060002001600090919091909150555050565b6000806002600084815260200190815260200160002060009054906101000a900473ffffffffffffffffffffffffffffffffffffffff169050600073ffffffffffffffffffffffffffffffffffffffff168173ffffffffffffffffffffffffffffffffffffffff161415611385576040517f08c379a000000000000000000000000000000000000000000000000000000000815260040161137c90613c88565b60405180910390fd5b80915050919050565b60008073ffffffffffffffffffffffffffffffffffffffff168273ffffffffffffffffffffffffffffffffffffffff1614156113ff576040517f08c379a00000000000000000000000000000000000000000000000000000000081526004016113f690613d1a565b60405180910390fd5b600360008373ffffffffffffffffffffffffffffffffffffffff1673ffffffffffffffffffffffffffffffffffffffff168152602001908152602001600020549050919050565b61144e612e2f565b611456612e2f565b6000600b826000600a811061146e5761146d613a87565b5b60200201818152505060005b6009805490508110156115af573373ffffffffffffffffffffffffffffffffffffffff166114a7826112dc565b73ffffffffffffffffffffffffffffffffffffffff16148015611541575060011515600982815481106114dd576114dc613a87565b5b906000526020600020906009020160060160149054906101000a900460ff16151514806115405750600115156009828154811061151d5761151c613a87565b5b906000526020600020906009020160060160159054906101000a900460ff161515145b5b1561159c57808383600a811061155a57611559613a87565b5b602002018181525050600b836001846115739190613ae5565b600a811061158457611583613a87565b5b602002018181525050818061159890613b3b565b9250505b80806115a790613b3b565b91505061147a565b50819250505090565b6115c0612e2f565b6115c8612e2f565b6000600b826000600a81106115e0576115df613a87565b5b60200201818152505060005b60098054905081101561169e573373ffffffffffffffffffffffffffffffffffffffff16611619826112dc565b73ffffffffffffffffffffffffffffffffffffffff16141561168b57808383600a811061164957611648613a87565b5b602002018181525050600b836001846116629190613ae5565b600a811061167357611672613a87565b5b602002018181525050818061168790613b3b565b9250505b808061169690613b3b565b9150506115ec565b50819250505090565b6060600180546116b69061389f565b80601f01602080910402602001604051908101604052809291908181526020018280546116e29061389f565b801561172f5780601f106117045761010080835404028352916020019161172f565b820191906000526020600020905b81548152906001019060200180831161171257829003601f168201915b5050505050905090565b61174161246a565b73ffffffffffffffffffffffffffffffffffffffff168273ffffffffffffffffffffffffffffffffffffffff1614156117af576040517f08c379a00000000000000000000000000000000000000000000000000000000081526004016117a690613d86565b60405180910390fd5b80600560006117bc61246a565b73ffffffffffffffffffffffffffffffffffffffff1673ffffffffffffffffffffffffffffffffffffffff16815260200190815260200160002060008473ffffffffffffffffffffffffffffffffffffffff1673ffffffffffffffffffffffffffffffffffffffff16815260200190815260200160002060006101000a81548160ff0219169083151502179055508173ffffffffffffffffffffffffffffffffffffffff1661186961246a565b73ffffffffffffffffffffffffffffffffffffffff167f17307eab39ab6107e8899845ad3d59bd9653f200f220920489ca2b5937696c31836040516118ae9190612feb565b60405180910390a35050565b600981815481106118ca57600080fd5b90600052602060002090600902016000915090508060000154908060010180546118f39061389f565b80601f016020809104026020016040519081016040528092919081815260200182805461191f9061389f565b801561196c5780601f106119415761010080835404028352916020019161196c565b820191906000526020600020905b81548152906001019060200180831161194f57829003601f168201915b5050505050908060020180546119819061389f565b80601f01602080910402602001604051908101604052809291908181526020018280546119ad9061389f565b80156119fa5780601f106119cf576101008083540402835291602001916119fa565b820191906000526020600020905b8154815290600101906020018083116119dd57829003601f168201915b505050505090806003018054611a0f9061389f565b80601f0160208091040260200160405190810160405280929190818152602001828054611a3b9061389f565b8015611a885780601f10611a5d57610100808354040283529160200191611a88565b820191906000526020600020905b815481529060010190602001808311611a6b57829003601f168201915b5050505050908060040154908060050154908060060160009054906101000a900473ffffffffffffffffffffffffffffffffffffffff16908060060160149054906101000a900460ff16908060060160159054906101000a900460ff1690806007015490806008015490508b565b611b07611b0161246a565b8361252b565b611b46576040517f08c379a0000000000000000000000000000000000000000000000000000000008152600401611b3d90613bf6565b60405180910390fd5b611b5284848484612865565b50505050565b3373ffffffffffffffffffffffffffffffffffffffff16611b78826112dc565b73ffffffffffffffffffffffffffffffffffffffff1614611b9857600080fd5b6001151560098281548110611bb057611baf613a87565b5b906000526020600020906009020160060160159054906101000a900460ff16151514611bdb57600080fd5b3373ffffffffffffffffffffffffffffffffffffffff1660098281548110611c0657611c05613a87565b5b906000526020600020906009020160060160009054906101000a900473ffffffffffffffffffffffffffffffffffffffff1673ffffffffffffffffffffffffffffffffffffffff161415611cd557600860008281526020019081526020016000206000611c739190612e52565b600760008281526020019081526020016000206000611c929190612e73565b600060098281548110611ca857611ca7613a87565b5b906000526020600020906009020160060160156101000a81548160ff021916908315150217905550611d91565b611d2460098281548110611cec57611ceb613a87565b5b906000526020600020906009020160060160009054906101000a900473ffffffffffffffffffffffffffffffffffffffff168261089d565b3373ffffffffffffffffffffffffffffffffffffffff166108fc60098381548110611d5257611d51613a87565b5b9060005260206000209060090201600501549081150290604051600060405180830381858888f19350505050158015611d8f573d6000803e3d6000fd5b505b50565b6060611d9f826123fe565b611dde576040517f08c379a0000000000000000000000000000000000000000000000000000000008152600401611dd590613e18565b60405180910390fd5b6000611de86128c1565b90506000815111611e085760405180602001604052806000815250611e33565b80611e12846128d8565b604051602001611e23929190613e74565b6040516020818303038152906040525b915050919050565b6000600980549050905060066000828152602001908152602001600020339080600181540180825580915050600190039060005260206000200160009091909190916101000a81548173ffffffffffffffffffffffffffffffffffffffff021916908373ffffffffffffffffffffffffffffffffffffffff1602179055506009604051806101600160405280838152602001878152602001868152602001858152602001848152602001600081526020013373ffffffffffffffffffffffffffffffffffffffff16815260200160001515815260200160001515815260200142815260200160018152509080600181540180825580915050600190039060005260206000209060090201600090919091909150600082015181600001556020820151816001019080519060200190611f74929190612e94565b506040820151816002019080519060200190611f91929190612e94565b506060820151816003019080519060200190611fae929190612e94565b506080820151816004015560a0820151816005015560c08201518160060160006101000a81548173ffffffffffffffffffffffffffffffffffffffff021916908373ffffffffffffffffffffffffffffffffffffffff16021790555060e08201518160060160146101000a81548160ff0219169083151502179055506101008201518160060160156101000a81548160ff02191690831515021790555061012082015181600701556101408201518160080155505061206d3382612a39565b5050505050565b565b6008602052816000526040600020818154811061209257600080fd5b906000526020600020016000915091509054906101000a900473ffffffffffffffffffffffffffffffffffffffff1681565b3373ffffffffffffffffffffffffffffffffffffffff166120e4846112dc565b73ffffffffffffffffffffffffffffffffffffffff161461213a576040517f08c379a000000000000000000000000000000000000000000000000000000000815260040161213190613ee4565b60405180910390fd5b600015156009848154811061215257612151613a87565b5b906000526020600020906009020160060160149054906101000a900460ff1615151461217d57600080fd5b600015156009848154811061219557612194613a87565b5b906000526020600020906009020160060160159054906101000a900460ff161515146121c057600080fd5b81600984815481106121d5576121d4613a87565b5b90600052602060002090600902016005018190555033600984815481106121ff576121fe613a87565b5b906000526020600020906009020160060160006101000a81548173ffffffffffffffffffffffffffffffffffffffff021916908373ffffffffffffffffffffffffffffffffffffffff160217905550804261225a9190613ae5565b6009848154811061226e5761226d613a87565b5b90600052602060002090600902016007018190555060016009848154811061229957612298613a87565b5b906000526020600020906009020160060160146101000a81548160ff02191690831515021790555060076000848152602001908152602001600020829080600181540180825580915050600190039060005260206000200160009091909190915055505050565b6000600560008473ffffffffffffffffffffffffffffffffffffffff1673ffffffffffffffffffffffffffffffffffffffff16815260200190815260200160002060008373ffffffffffffffffffffffffffffffffffffffff1673ffffffffffffffffffffffffffffffffffffffff16815260200190815260200160002060009054906101000a900460ff16905092915050565b60007f01ffc9a7000000000000000000000000000000000000000000000000000000007bffffffffffffffffffffffffffffffffffffffffffffffffffffffff1916827bffffffffffffffffffffffffffffffffffffffffffffffffffffffff1916149050919050565b60008073ffffffffffffffffffffffffffffffffffffffff166002600084815260200190815260200160002060009054906101000a900473ffffffffffffffffffffffffffffffffffffffff1673ffffffffffffffffffffffffffffffffffffffff1614159050919050565b600033905090565b816004600083815260200190815260200160002060006101000a81548173ffffffffffffffffffffffffffffffffffffffff021916908373ffffffffffffffffffffffffffffffffffffffff160217905550808273ffffffffffffffffffffffffffffffffffffffff166124e5836112dc565b73ffffffffffffffffffffffffffffffffffffffff167f8c5be1e5ebec7d5bd14f71427d1e84f3dd0314c0f7b2291e5b200ac8c7c3b92560405160405180910390a45050565b6000612536826123fe565b612575576040517f08c379a000000000000000000000000000000000000000000000000000000000815260040161256c90613f76565b60405180910390fd5b6000612580836112dc565b90508073ffffffffffffffffffffffffffffffffffffffff168473ffffffffffffffffffffffffffffffffffffffff1614806125ef57508373ffffffffffffffffffffffffffffffffffffffff166125d784610818565b73ffffffffffffffffffffffffffffffffffffffff16145b8061260057506125ff8185612300565b5b91505092915050565b8273ffffffffffffffffffffffffffffffffffffffff16612629826112dc565b73ffffffffffffffffffffffffffffffffffffffff161461267f576040517f08c379a000000000000000000000000000000000000000000000000000000000815260040161267690614008565b60405180910390fd5b600073ffffffffffffffffffffffffffffffffffffffff168273ffffffffffffffffffffffffffffffffffffffff1614156126ef576040517f08c379a00000000000000000000000000000000000000000000000000000000081526004016126e69061409a565b60405180910390fd5b6126fa838383612a57565b612705600082612472565b6001600360008573ffffffffffffffffffffffffffffffffffffffff1673ffffffffffffffffffffffffffffffffffffffff168152602001908152602001600020600082825461275591906140ba565b925050819055506001600360008473ffffffffffffffffffffffffffffffffffffffff1673ffffffffffffffffffffffffffffffffffffffff16815260200190815260200160002060008282546127ac9190613ae5565b92505081905550816002600083815260200190815260200160002060006101000a81548173ffffffffffffffffffffffffffffffffffffffff021916908373ffffffffffffffffffffffffffffffffffffffff160217905550808273ffffffffffffffffffffffffffffffffffffffff168473ffffffffffffffffffffffffffffffffffffffff167fddf252ad1be2c89b69c2b068fc378daa952ba7f163c4a11628f55a4df523b3ef60405160405180910390a4505050565b612870848484612609565b61287c84848484612a5c565b6128bb576040517f08c379a00000000000000000000000000000000000000000000000000000000081526004016128b290614160565b60405180910390fd5b50505050565b606060405180602001604052806000815250905090565b60606000821415612920576040518060400160405280600181526020017f30000000000000000000000000000000000000000000000000000000000000008152509050612a34565b600082905060005b6000821461295257808061293b90613b3b565b915050600a8261294b91906141af565b9150612928565b60008167ffffffffffffffff81111561296e5761296d6134d3565b5b6040519080825280601f01601f1916602001820160405280156129a05781602001600182028036833780820191505090505b5090505b60008514612a2d576001826129b991906140ba565b9150600a856129c891906141e0565b60306129d49190613ae5565b60f81b8183815181106129ea576129e9613a87565b5b60200101907effffffffffffffffffffffffffffffffffffffffffffffffffffffffffffff1916908160001a905350600a85612a2691906141af565b94506129a4565b8093505050505b919050565b612a53828260405180602001604052806000815250612bf3565b5050565b505050565b6000612a7d8473ffffffffffffffffffffffffffffffffffffffff16612c4e565b15612be6578373ffffffffffffffffffffffffffffffffffffffff1663150b7a02612aa661246a565b8786866040518563ffffffff1660e01b8152600401612ac89493929190614266565b602060405180830381600087803b158015612ae257600080fd5b505af1925050508015612b1357506040513d601f19601f82011682018060405250810190612b1091906142c7565b60015b612b96573d8060008114612b43576040519150601f19603f3d011682016040523d82523d6000602084013e612b48565b606091505b50600081511415612b8e576040517f08c379a0000000000000000000000000000000000000000000000000000000008152600401612b8590614160565b60405180910390fd5b805181602001fd5b63150b7a0260e01b7bffffffffffffffffffffffffffffffffffffffffffffffffffffffff1916817bffffffffffffffffffffffffffffffffffffffffffffffffffffffff191614915050612beb565b600190505b949350505050565b612bfd8383612c61565b612c0a6000848484612a5c565b612c49576040517f08c379a0000000000000000000000000000000000000000000000000000000008152600401612c4090614160565b60405180910390fd5b505050565b600080823b905060008111915050919050565b600073ffffffffffffffffffffffffffffffffffffffff168273ffffffffffffffffffffffffffffffffffffffff161415612cd1576040517f08c379a0000000000000000000000000000000000000000000000000000000008152600401612cc890614340565b60405180910390fd5b612cda816123fe565b15612d1a576040517f08c379a0000000000000000000000000000000000000000000000000000000008152600401612d11906143ac565b60405180910390fd5b612d2660008383612a57565b6001600360008473ffffffffffffffffffffffffffffffffffffffff1673ffffffffffffffffffffffffffffffffffffffff1681526020019081526020016000206000828254612d769190613ae5565b92505081905550816002600083815260200190815260200160002060006101000a81548173ffffffffffffffffffffffffffffffffffffffff021916908373ffffffffffffffffffffffffffffffffffffffff160217905550808273ffffffffffffffffffffffffffffffffffffffff16600073ffffffffffffffffffffffffffffffffffffffff167fddf252ad1be2c89b69c2b068fc378daa952ba7f163c4a11628f55a4df523b3ef60405160405180910390a45050565b604051806101400160405280600a90602082028036833780820191505090505090565b5080546000825590600052602060002090810190612e709190612f1a565b50565b5080546000825590600052602060002090810190612e919190612f1a565b50565b828054612ea09061389f565b90600052602060002090601f016020900481019282612ec25760008555612f09565b82601f10612edb57805160ff1916838001178555612f09565b82800160010185558215612f09579182015b82811115612f08578251825591602001919060010190612eed565b5b509050612f169190612f1a565b5090565b5b80821115612f33576000816000905550600101612f1b565b5090565b6000604051905090565b600080fd5b600080fd5b60007fffffffff0000000000000000000000000000000000000000000000000000000082169050919050565b612f8081612f4b565b8114612f8b57600080fd5b50565b600081359050612f9d81612f77565b92915050565b600060208284031215612fb957612fb8612f41565b5b6000612fc784828501612f8e565b91505092915050565b60008115159050919050565b612fe581612fd0565b82525050565b60006020820190506130006000830184612fdc565b92915050565b600081519050919050565b600082825260208201905092915050565b60005b83811015613040578082015181840152602081019050613025565b8381111561304f576000848401525b50505050565b6000601f19601f8301169050919050565b600061307182613006565b61307b8185613011565b935061308b818560208601613022565b61309481613055565b840191505092915050565b600060208201905081810360008301526130b98184613066565b905092915050565b6000819050919050565b6130d4816130c1565b81146130df57600080fd5b50565b6000813590506130f1816130cb565b92915050565b60006020828403121561310d5761310c612f41565b5b600061311b848285016130e2565b91505092915050565b600073ffffffffffffffffffffffffffffffffffffffff82169050919050565b600061314f82613124565b9050919050565b61315f81613144565b82525050565b600060208201905061317a6000830184613156565b92915050565b61318981613144565b811461319457600080fd5b50565b6000813590506131a681613180565b92915050565b600080604083850312156131c3576131c2612f41565b5b60006131d185828601613197565b92505060206131e2858286016130e2565b9150509250929050565b6000600a9050919050565b600081905092915050565b6000819050919050565b613215816130c1565b82525050565b6000613227838361320c565b60208301905092915050565b6000602082019050919050565b613249816131ec565b61325381846131f7565b925061325e82613202565b8060005b8381101561328f578151613276878261321b565b965061328183613233565b925050600181019050613262565b505050505050565b6000610140820190506132ad6000830184613240565b92915050565b6000806000606084860312156132cc576132cb612f41565b5b60006132da86828701613197565b93505060206132eb86828701613197565b92505060406132fc868287016130e2565b9150509250925092565b6000806040838503121561331d5761331c612f41565b5b600061332b858286016130e2565b925050602061333c858286016130e2565b9150509250929050565b61334f816130c1565b82525050565b600060208201905061336a6000830184613346565b92915050565b60006020828403121561338657613385612f41565b5b600061339484828501613197565b91505092915050565b6133a681612fd0565b81146133b157600080fd5b50565b6000813590506133c38161339d565b92915050565b600080604083850312156133e0576133df612f41565b5b60006133ee85828601613197565b92505060206133ff858286016133b4565b9150509250929050565b60006101608201905061341f600083018e613346565b8181036020830152613431818d613066565b90508181036040830152613445818c613066565b90508181036060830152613459818b613066565b9050613468608083018a613346565b61347560a0830189613346565b61348260c0830188613156565b61348f60e0830187612fdc565b61349d610100830186612fdc565b6134ab610120830185613346565b6134b9610140830184613346565b9c9b505050505050505050505050565b600080fd5b600080fd5b7f4e487b7100000000000000000000000000000000000000000000000000000000600052604160045260246000fd5b61350b82613055565b810181811067ffffffffffffffff8211171561352a576135296134d3565b5b80604052505050565b600061353d612f37565b90506135498282613502565b919050565b600067ffffffffffffffff821115613569576135686134d3565b5b61357282613055565b9050602081019050919050565b82818337600083830152505050565b60006135a161359c8461354e565b613533565b9050828152602081018484840111156135bd576135bc6134ce565b5b6135c884828561357f565b509392505050565b600082601f8301126135e5576135e46134c9565b5b81356135f584826020860161358e565b91505092915050565b6000806000806080858703121561361857613617612f41565b5b600061362687828801613197565b945050602061363787828801613197565b9350506040613648878288016130e2565b925050606085013567ffffffffffffffff81111561366957613668612f46565b5b613675878288016135d0565b91505092959194509250565b600067ffffffffffffffff82111561369c5761369b6134d3565b5b6136a582613055565b9050602081019050919050565b60006136c56136c084613681565b613533565b9050828152602081018484840111156136e1576136e06134ce565b5b6136ec84828561357f565b509392505050565b600082601f830112613709576137086134c9565b5b81356137198482602086016136b2565b91505092915050565b6000806000806080858703121561373c5761373b612f41565b5b600085013567ffffffffffffffff81111561375a57613759612f46565b5b613766878288016136f4565b945050602085013567ffffffffffffffff81111561378757613786612f46565b5b613793878288016136f4565b935050604085013567ffffffffffffffff8111156137b4576137b3612f46565b5b6137c0878288016136f4565b92505060606137d1878288016130e2565b91505092959194509250565b6000806000606084860312156137f6576137f5612f41565b5b6000613804868287016130e2565b9350506020613815868287016130e2565b9250506040613826868287016130e2565b9150509250925092565b6000806040838503121561384757613846612f41565b5b600061385585828601613197565b925050602061386685828601613197565b9150509250929050565b7f4e487b7100000000000000000000000000000000000000000000000000000000600052602260045260246000fd5b600060028204905060018216806138b757607f821691505b602082108114156138cb576138ca613870565b5b50919050565b7f4552433732313a20617070726f76656420717565727920666f72206e6f6e657860008201527f697374656e7420746f6b656e0000000000000000000000000000000000000000602082015250565b600061392d602c83613011565b9150613938826138d1565b604082019050919050565b6000602082019050818103600083015261395c81613920565b9050919050565b7f4552433732313a20617070726f76616c20746f2063757272656e74206f776e6560008201527f7200000000000000000000000000000000000000000000000000000000000000602082015250565b60006139bf602183613011565b91506139ca82613963565b604082019050919050565b600060208201905081810360008301526139ee816139b2565b9050919050565b7f4552433732313a20617070726f76652063616c6c6572206973206e6f74206f7760008201527f6e6572206e6f7220617070726f76656420666f7220616c6c0000000000000000602082015250565b6000613a51603883613011565b9150613a5c826139f5565b604082019050919050565b60006020820190508181036000830152613a8081613a44565b9050919050565b7f4e487b7100000000000000000000000000000000000000000000000000000000600052603260045260246000fd5b7f4e487b7100000000000000000000000000000000000000000000000000000000600052601160045260246000fd5b6000613af0826130c1565b9150613afb836130c1565b9250827fffffffffffffffffffffffffffffffffffffffffffffffffffffffffffffffff03821115613b3057613b2f613ab6565b5b828201905092915050565b6000613b46826130c1565b91507fffffffffffffffffffffffffffffffffffffffffffffffffffffffffffffffff821415613b7957613b78613ab6565b5b600182019050919050565b7f4552433732313a207472616e736665722063616c6c6572206973206e6f74206f60008201527f776e6572206e6f7220617070726f766564000000000000000000000000000000602082015250565b6000613be0603183613011565b9150613beb82613b84565b604082019050919050565b60006020820190508181036000830152613c0f81613bd3565b9050919050565b7f4552433732313a206f776e657220717565727920666f72206e6f6e657869737460008201527f656e7420746f6b656e0000000000000000000000000000000000000000000000602082015250565b6000613c72602983613011565b9150613c7d82613c16565b604082019050919050565b60006020820190508181036000830152613ca181613c65565b9050919050565b7f4552433732313a2062616c616e636520717565727920666f7220746865207a6560008201527f726f206164647265737300000000000000000000000000000000000000000000602082015250565b6000613d04602a83613011565b9150613d0f82613ca8565b604082019050919050565b60006020820190508181036000830152613d3381613cf7565b9050919050565b7f4552433732313a20617070726f766520746f2063616c6c657200000000000000600082015250565b6000613d70601983613011565b9150613d7b82613d3a565b602082019050919050565b60006020820190508181036000830152613d9f81613d63565b9050919050565b7f4552433732314d657461646174613a2055524920717565727920666f72206e6f60008201527f6e6578697374656e7420746f6b656e0000000000000000000000000000000000602082015250565b6000613e02602f83613011565b9150613e0d82613da6565b604082019050919050565b60006020820190508181036000830152613e3181613df5565b9050919050565b600081905092915050565b6000613e4e82613006565b613e588185613e38565b9350613e68818560208601613022565b80840191505092915050565b6000613e808285613e43565b9150613e8c8284613e43565b91508190509392505050565b7f596f7520646f6e277420686176652072696768747320746f2073656c6c000000600082015250565b6000613ece601d83613011565b9150613ed982613e98565b602082019050919050565b60006020820190508181036000830152613efd81613ec1565b9050919050565b7f4552433732313a206f70657261746f7220717565727920666f72206e6f6e657860008201527f697374656e7420746f6b656e0000000000000000000000000000000000000000602082015250565b6000613f60602c83613011565b9150613f6b82613f04565b604082019050919050565b60006020820190508181036000830152613f8f81613f53565b9050919050565b7f4552433732313a207472616e73666572206f6620746f6b656e2074686174206960008201527f73206e6f74206f776e0000000000000000000000000000000000000000000000602082015250565b6000613ff2602983613011565b9150613ffd82613f96565b604082019050919050565b6000602082019050818103600083015261402181613fe5565b9050919050565b7f4552433732313a207472616e7366657220746f20746865207a65726f2061646460008201527f7265737300000000000000000000000000000000000000000000000000000000602082015250565b6000614084602483613011565b915061408f82614028565b604082019050919050565b600060208201905081810360008301526140b381614077565b9050919050565b60006140c5826130c1565b91506140d0836130c1565b9250828210156140e3576140e2613ab6565b5b828203905092915050565b7f4552433732313a207472616e7366657220746f206e6f6e20455243373231526560008201527f63656976657220696d706c656d656e7465720000000000000000000000000000602082015250565b600061414a603283613011565b9150614155826140ee565b604082019050919050565b600060208201905081810360008301526141798161413d565b9050919050565b7f4e487b7100000000000000000000000000000000000000000000000000000000600052601260045260246000fd5b60006141ba826130c1565b91506141c5836130c1565b9250826141d5576141d4614180565b5b828204905092915050565b60006141eb826130c1565b91506141f6836130c1565b92508261420657614205614180565b5b828206905092915050565b600081519050919050565b600082825260208201905092915050565b600061423882614211565b614242818561421c565b9350614252818560208601613022565b61425b81613055565b840191505092915050565b600060808201905061427b6000830187613156565b6142886020830186613156565b6142956040830185613346565b81810360608301526142a7818461422d565b905095945050505050565b6000815190506142c181612f77565b92915050565b6000602082840312156142dd576142dc612f41565b5b60006142eb848285016142b2565b91505092915050565b7f4552433732313a206d696e7420746f20746865207a65726f2061646472657373600082015250565b600061432a602083613011565b9150614335826142f4565b602082019050919050565b600060208201905081810360008301526143598161431d565b9050919050565b7f4552433732313a20746f6b656e20616c7265616479206d696e74656400000000600082015250565b6000614396601c83613011565b91506143a182614360565b602082019050919050565b600060208201905081810360008301526143c581614389565b905091905056fea2646970667358221220c9729325c47ff5f4532fd95ffc48175bed8fd66b1463a085b17ac057aef263eb64736f6c63430008090033",
  "immutableReferences": {},
  "source": "pragma solidity ^0.8.0;\r\n\r\npragma experimental ABIEncoderV2;\r\nimport \"../node_modules/@openzeppelin/contracts/token/ERC721/ERC721.sol\";\r\n\r\n\r\ncontract Openbush is ERC721{\r\n    struct NFT{\r\n        uint id;\r\n        string uri;\r\n        string name;\r\n        string description;\r\n        uint startprice;\r\n        uint currentprice;\r\n        address currentowner;\r\n        bool onsale;\r\n        bool setaside;\r\n        uint endtime;\r\n        uint ownerNum;\r\n    }\r\n\r\n    mapping(uint => address[]) public owners;\r\n    mapping(uint => uint[]) public bidprices;\r\n    mapping(uint => address[]) public bidders;\r\n    \r\n    NFT[] public NFTs;\r\n\r\n    constructor() ERC721(\"Openbush\", \"OBS\") public{\r\n        \r\n    }\r\n    \r\n    function deposit() public payable{\r\n        \r\n    }\r\n    \r\n    function createNFT(string memory _uri, string memory _name, string memory _description, uint _price ) public payable{\r\n        //require(msg.value == 100000000); // 0.0000001 eth\r\n        uint _id = NFTs.length;\r\n        owners[_id].push(msg.sender);\r\n        NFTs.push(NFT(\r\n            _id, _uri, _name, _description, _price, 0, msg.sender, false, false, block.timestamp, 1\r\n        ));\r\n\r\n        _safeMint(msg.sender, _id);\r\n    }\r\n\r\n    function sell(uint _id, uint _startprice, uint _time) public payable{\r\n        require(ownerOf(_id) == msg.sender, \"You don't have rights to sell\");\r\n        //require(msg.value == 100000000); // 0.0000001 eth\r\n\r\n        require(NFTs[_id].onsale == false);\r\n        require(NFTs[_id].setaside == false);\r\n\r\n        NFTs[_id].currentprice = _startprice;\r\n        NFTs[_id].currentowner = msg.sender;\r\n        NFTs[_id].endtime = block.timestamp + _time; //sec\r\n        NFTs[_id].onsale = true;\r\n        bidprices[_id].push(_startprice);\r\n    }\r\n\r\n    function bid(uint _id, uint _price) payable public{\r\n        //require(msg.value == 100000000); //0.0000001 eth\r\n        require(_price > NFTs[_id].currentprice);\r\n        require(ownerOf(_id) != msg.sender);\r\n        \r\n        NFTs[_id].currentprice = _price;\r\n        NFTs[_id].currentowner = msg.sender;\r\n        bidders[_id].push(msg.sender);\r\n        bidprices[_id].push(_price);\r\n    }\r\n\r\n    function refreshAuction() public{\r\n        for(uint i = 0; i < NFTs.length; i++){\r\n            if(NFTs[i].onsale == true && NFTs[i].endtime <= block.timestamp){\r\n                NFTs[i].onsale = false;\r\n                NFTs[i].setaside = true;\r\n            }\r\n        }\r\n    }\r\n\r\n    function sellerApprove(uint _id) payable public{\r\n        require(ownerOf(_id) == msg.sender);\r\n        require(NFTs[_id].setaside == true);\r\n\r\n        if(NFTs[_id].currentowner == msg.sender){\r\n            delete bidders[_id];\r\n            delete bidprices[_id];\r\n            NFTs[_id].setaside = false;\r\n        }\r\n\r\n        else{\r\n            approve(NFTs[_id].currentowner, _id);\r\n            payable(msg.sender).transfer(NFTs[_id].currentprice);\r\n        }\r\n    }\r\n\r\n    function claim(uint _id) payable public{\r\n        require(NFTs[_id].setaside == true);\r\n        require(NFTs[_id].currentowner == msg.sender);\r\n        require(NFTs[_id].currentprice == msg.value);\r\n\r\n        transferFrom(ownerOf(_id), msg.sender, _id);\r\n        owners[_id].push(msg.sender);\r\n        NFTs[_id].ownerNum++;\r\n        NFTs[_id].setaside = false;\r\n        NFTs[_id].startprice = NFTs[_id].currentprice;\r\n        delete bidders[_id];\r\n        delete bidprices[_id];\r\n    }\r\n\r\n    function getNFT() public view returns(uint[10] memory ret){\r\n        uint[10] memory result;\r\n        uint cnt = 0;\r\n        result[0] = uint(11);\r\n\r\n        for(uint i = 0; i < NFTs.length; i++){\r\n            if(ownerOf(i) == msg.sender){\r\n                result[cnt] = i;\r\n                result[cnt+1] = uint(11);\r\n                cnt++;\r\n            }\r\n        }\r\n        return result;\r\n    }\r\n\r\n    function getAuction() public view returns(uint[10] memory ret){\r\n        uint[10] memory result;\r\n        uint cnt = 0;\r\n        result[0] = uint(11);\r\n\r\n        for(uint i = 0; i < NFTs.length; i++){\r\n            if(ownerOf(i) == msg.sender && (NFTs[i].onsale == true || NFTs[i].setaside == true)){\r\n                result[cnt] = i;\r\n                result[cnt+1] = uint(11);\r\n                cnt++;\r\n            }\r\n        }\r\n        \r\n        return result;\r\n    }\r\n\r\n    function getAllAuction() public view returns(uint[10] memory ret){\r\n        uint[10] memory result;\r\n        uint cnt = 0;\r\n        result[0] = uint(11);\r\n\r\n        for(uint i = 0; i < NFTs.length; i++){\r\n            if(NFTs[i].onsale == true){\r\n                result[cnt] = i;\r\n                result[cnt+1] = uint(11);\r\n                cnt++;\r\n            }\r\n        }\r\n        return result;\r\n    }\r\n\r\n     function getBid() public view returns(uint[10] memory ret){\r\n        uint[10] memory result;\r\n        uint cnt = 0;\r\n        result[0] = uint(11);\r\n\r\n        for(uint i = 0; i < NFTs.length; i++){\r\n            if(NFTs[i].onsale == true || NFTs[i].setaside == true){\r\n                for(uint j = 0; j < bidders[i].length; j++){\r\n                    if(bidders[i][j] == msg.sender){\r\n                        result[cnt] = i;\r\n                        result[cnt+1] = uint(11);\r\n                        cnt++;\r\n                        break;\r\n                    }\r\n                }\r\n            }\r\n        }\r\n        return result;\r\n    }\r\n}",
  "sourcePath": "/Users/apple/Documents/openbush/openbush_contract/contracts/Openbush.sol",
  "compiler": {
    "name": "solc",
    "version": "0.8.9+commit.e5eed63a.Emscripten.clang"
  },
  "schemaVersion": "3.4.3",
  "updatedAt": "2021-11-04T14:31:18.140Z",
  "networkType": "ethereum",
  "devdoc": {
    "kind": "dev",
    "methods": {
      "approve(address,uint256)": {
        "details": "See {IERC721-approve}."
      },
      "balanceOf(address)": {
        "details": "See {IERC721-balanceOf}."
      },
      "getApproved(uint256)": {
        "details": "See {IERC721-getApproved}."
      },
      "isApprovedForAll(address,address)": {
        "details": "See {IERC721-isApprovedForAll}."
      },
      "name()": {
        "details": "See {IERC721Metadata-name}."
      },
      "ownerOf(uint256)": {
        "details": "See {IERC721-ownerOf}."
      },
      "safeTransferFrom(address,address,uint256)": {
        "details": "See {IERC721-safeTransferFrom}."
      },
      "safeTransferFrom(address,address,uint256,bytes)": {
        "details": "See {IERC721-safeTransferFrom}."
      },
      "setApprovalForAll(address,bool)": {
        "details": "See {IERC721-setApprovalForAll}."
      },
      "supportsInterface(bytes4)": {
        "details": "See {IERC165-supportsInterface}."
      },
      "symbol()": {
        "details": "See {IERC721Metadata-symbol}."
      },
      "tokenURI(uint256)": {
        "details": "See {IERC721Metadata-tokenURI}."
      },
      "transferFrom(address,address,uint256)": {
        "details": "See {IERC721-transferFrom}."
      }
    },
    "version": 1
  },
  "userdoc": {
    "kind": "user",
    "methods": {},
    "version": 1
  }
}